:100000000C942A000C943F000C943F000C943F0089
:100010000C943F000C943F000C943F000C943F0064
:100020000C943F000C943F000C943F000C943F0054
:100030000C943F000C943F000C943F000C943F0044
:100040000C943F000C943F000C943F000C943F0034
:100050000C943F0011241FBECFE5D8E0DEBFCDBF1A
:1000600010E0A0E6B0E0E2ECF3E002C005900D92F3
:10007000A636B107D9F70E94D4010C94DF010C9485
:100080000000823471F018F4813431F00895833423
:1000900069F0843481F008958AB3607F682B6ABB6D
:1000A000089587B3607F682B67BB089584B3607F32
:1000B000682B64BB089581B3607F682B61BB089592
:1000C000823471F018F4813431F00895833469F08A
:1000D000843481F008958AB36F70682B6ABB0895E9
:1000E00087B36F70682B67BB089584B36F70682BFC
:1000F00064BB089581B36F70682B61BB089582342F
:1001000019F118F4813439F008958334B1F184344D
:1001100009F44CC00895613059F42BB381E090E0AC
:1001200002C0880F991F4A95E2F7822B8BBB089576
:100130002BB381E090E002C0880F991F4A95E2F747
:10014000809582238BBB0895613059F428B381E0F8
:1001500090E002C0880F991F4A95E2F7822B88BB76
:10016000089528B381E090E002C0880F991F4A9556
:10017000E2F78095822388BB0895613059F425B356
:1001800081E090E002C0880F991F4A95E2F7822B28
:1001900085BB089525B381E090E002C0880F991FC8
:1001A0004A95E2F78095822385BB0895613059F422
:1001B00022B381E090E002C0880F991F4A95E2F7D0
:1001C000822B82BB089522B381E090E002C0880FA9
:1001D000991F4A95E2F78095822382BB0895823465
:1001E00089F018F4813431F00895833499F084341F
:1001F000C9F008958BB38F708BBB8BB3607F682B76
:100200006BBB089588B38F7088BB88B3607F682B01
:1002100068BB089585B38F7085BB85B3607F682BFD
:1002200065BB089582B38F7082BB82B3607F682BF9
:1002300062BB08958234A1F018F4813431F008953E
:100240008334C9F0843411F108958BB38F708BBB64
:100250008BB390E1699FB0011124682B6BBB0895AB
:1002600088B38F7088BB88B390E1699FB001112477
:10027000682B68BB089585B38F7085BB85B390E10B
:10028000699FB0011124682B65BB089582B38F70FC
:1002900082BB82B390E1699FB0011124682B62BBDD
:1002A000089543E061E082E40E947F0087EE93E0DE
:1002B0000197F1F700C0000043E060E082E40E9493
:1002C0007F0087EE93E00197F1F700C000000895EA
:1002D000CF93C82F41E060E082E40E947F006C2F42
:1002E00081E40E94EF000E9451016C2F81E40E9482
:1002F0001A010E945101CF91089560EF81E40E949C
:1003000041006EE082E40E94600042E060E082E42E
:100310000E947F0083E30E94680182E30E946801DB
:1003200088E20E9468018FE00E94680181E00E94DB
:10033000680187E893E10197F1F700C00000089594
:10034000CF93C82F41E061E082E40E947F006C2FD0
:1003500081E40E94EF000E9451016C2F81E40E9411
:100360001A010E945101CF910895CF93DF93EC01C0
:100370008881882331F021960E94A0018991811102
:10038000FBCFDF91CF910895823068F4603158F44B
:10039000811105C080E8860F0E946801089580ECF5
:1003A000860F0E94680108950E947D0164E081E04B
:1003B0000E94C40180E690E00E94B501FFCFF8944E
:0203C000FFCF6D
:0603C200596172610000A8
:00000001FF
